{
    "_format": "hh-sol-artifact-1",
    "contractName": "Staking",
    "sourceName": "contracts/Staking.sol",
    "abi": [
        {
            "inputs": [],
            "stateMutability": "nonpayable",
            "type": "constructor"
        },
        {
            "anonymous": false,
            "inputs": [
                {
                    "indexed": true,
                    "internalType": "address",
                    "name": "owner",
                    "type": "address"
                },
                {
                    "indexed": true,
                    "internalType": "address",
                    "name": "spender",
                    "type": "address"
                },
                {
                    "indexed": false,
                    "internalType": "uint256",
                    "name": "value",
                    "type": "uint256"
                }
            ],
            "name": "Approval",
            "type": "event"
        },
        {
            "anonymous": false,
            "inputs": [
                {
                    "indexed": true,
                    "internalType": "address",
                    "name": "previousOwner",
                    "type": "address"
                },
                {
                    "indexed": true,
                    "internalType": "address",
                    "name": "newOwner",
                    "type": "address"
                }
            ],
            "name": "OwnershipTransferred",
            "type": "event"
        },
        {
            "anonymous": false,
            "inputs": [
                {
                    "indexed": true,
                    "internalType": "address",
                    "name": "from",
                    "type": "address"
                },
                {
                    "indexed": true,
                    "internalType": "address",
                    "name": "to",
                    "type": "address"
                },
                {
                    "indexed": false,
                    "internalType": "uint256",
                    "name": "value",
                    "type": "uint256"
                }
            ],
            "name": "Transfer",
            "type": "event"
        },
        {
            "inputs": [
                {
                    "internalType": "address",
                    "name": "_stakeholder",
                    "type": "address"
                }
            ],
            "name": "addStakeholder",
            "outputs": [],
            "stateMutability": "nonpayable",
            "type": "function"
        },
        {
            "inputs": [
                {
                    "internalType": "address",
                    "name": "owner",
                    "type": "address"
                },
                {
                    "internalType": "address",
                    "name": "spender",
                    "type": "address"
                }
            ],
            "name": "allowance",
            "outputs": [
                {
                    "internalType": "uint256",
                    "name": "",
                    "type": "uint256"
                }
            ],
            "stateMutability": "view",
            "type": "function"
        },
        {
            "inputs": [
                {
                    "internalType": "address",
                    "name": "spender",
                    "type": "address"
                },
                {
                    "internalType": "uint256",
                    "name": "amount",
                    "type": "uint256"
                }
            ],
            "name": "approve",
            "outputs": [
                {
                    "internalType": "bool",
                    "name": "",
                    "type": "bool"
                }
            ],
            "stateMutability": "nonpayable",
            "type": "function"
        },
        {
            "inputs": [
                {
                    "internalType": "address",
                    "name": "account",
                    "type": "address"
                }
            ],
            "name": "balanceOf",
            "outputs": [
                {
                    "internalType": "uint256",
                    "name": "",
                    "type": "uint256"
                }
            ],
            "stateMutability": "view",
            "type": "function"
        },
        {
            "inputs": [
                {
                    "internalType": "address",
                    "name": "to",
                    "type": "address"
                },
                {
                    "internalType": "uint256",
                    "name": "amount",
                    "type": "uint256"
                }
            ],
            "name": "buyToken",
            "outputs": [],
            "stateMutability": "nonpayable",
            "type": "function"
        },
        {
            "inputs": [
                {
                    "internalType": "address",
                    "name": "_stakeholder",
                    "type": "address"
                }
            ],
            "name": "calculateReward",
            "outputs": [
                {
                    "internalType": "uint256",
                    "name": "",
                    "type": "uint256"
                }
            ],
            "stateMutability": "view",
            "type": "function"
        },
        {
            "inputs": [
                {
                    "internalType": "uint256",
                    "name": "_stake",
                    "type": "uint256"
                }
            ],
            "name": "createStake",
            "outputs": [],
            "stateMutability": "nonpayable",
            "type": "function"
        },
        {
            "inputs": [],
            "name": "decimals",
            "outputs": [
                {
                    "internalType": "uint8",
                    "name": "",
                    "type": "uint8"
                }
            ],
            "stateMutability": "view",
            "type": "function"
        },
        {
            "inputs": [
                {
                    "internalType": "address",
                    "name": "spender",
                    "type": "address"
                },
                {
                    "internalType": "uint256",
                    "name": "subtractedValue",
                    "type": "uint256"
                }
            ],
            "name": "decreaseAllowance",
            "outputs": [
                {
                    "internalType": "bool",
                    "name": "",
                    "type": "bool"
                }
            ],
            "stateMutability": "nonpayable",
            "type": "function"
        },
        {
            "inputs": [],
            "name": "distributeRewards",
            "outputs": [],
            "stateMutability": "nonpayable",
            "type": "function"
        },
        {
            "inputs": [
                {
                    "internalType": "address",
                    "name": "spender",
                    "type": "address"
                },
                {
                    "internalType": "uint256",
                    "name": "addedValue",
                    "type": "uint256"
                }
            ],
            "name": "increaseAllowance",
            "outputs": [
                {
                    "internalType": "bool",
                    "name": "",
                    "type": "bool"
                }
            ],
            "stateMutability": "nonpayable",
            "type": "function"
        },
        {
            "inputs": [
                {
                    "internalType": "address",
                    "name": "_address",
                    "type": "address"
                }
            ],
            "name": "isStakeholder",
            "outputs": [
                {
                    "internalType": "bool",
                    "name": "",
                    "type": "bool"
                },
                {
                    "internalType": "uint256",
                    "name": "",
                    "type": "uint256"
                }
            ],
            "stateMutability": "view",
            "type": "function"
        },
        {
            "inputs": [],
            "name": "modifyTokenBuyPrice",
            "outputs": [],
            "stateMutability": "nonpayable",
            "type": "function"
        },
        {
            "inputs": [],
            "name": "name",
            "outputs": [
                {
                    "internalType": "string",
                    "name": "",
                    "type": "string"
                }
            ],
            "stateMutability": "view",
            "type": "function"
        },
        {
            "inputs": [],
            "name": "owner",
            "outputs": [
                {
                    "internalType": "address",
                    "name": "",
                    "type": "address"
                }
            ],
            "stateMutability": "view",
            "type": "function"
        },
        {
            "inputs": [],
            "name": "renounceOwnership",
            "outputs": [],
            "stateMutability": "nonpayable",
            "type": "function"
        },
        {
            "inputs": [
                {
                    "internalType": "address",
                    "name": "_stakeholder",
                    "type": "address"
                }
            ],
            "name": "stakeOf",
            "outputs": [
                {
                    "internalType": "uint256",
                    "name": "",
                    "type": "uint256"
                }
            ],
            "stateMutability": "view",
            "type": "function"
        },
        {
            "inputs": [],
            "name": "symbol",
            "outputs": [
                {
                    "internalType": "string",
                    "name": "",
                    "type": "string"
                }
            ],
            "stateMutability": "view",
            "type": "function"
        },
        {
            "inputs": [],
            "name": "totalSupply",
            "outputs": [
                {
                    "internalType": "uint256",
                    "name": "",
                    "type": "uint256"
                }
            ],
            "stateMutability": "view",
            "type": "function"
        },
        {
            "inputs": [
                {
                    "internalType": "address",
                    "name": "to",
                    "type": "address"
                },
                {
                    "internalType": "uint256",
                    "name": "amount",
                    "type": "uint256"
                }
            ],
            "name": "transfer",
            "outputs": [
                {
                    "internalType": "bool",
                    "name": "",
                    "type": "bool"
                }
            ],
            "stateMutability": "nonpayable",
            "type": "function"
        },
        {
            "inputs": [
                {
                    "internalType": "address",
                    "name": "from",
                    "type": "address"
                },
                {
                    "internalType": "address",
                    "name": "to",
                    "type": "address"
                },
                {
                    "internalType": "uint256",
                    "name": "amount",
                    "type": "uint256"
                }
            ],
            "name": "transferFrom",
            "outputs": [
                {
                    "internalType": "bool",
                    "name": "",
                    "type": "bool"
                }
            ],
            "stateMutability": "nonpayable",
            "type": "function"
        },
        {
            "inputs": [
                {
                    "internalType": "address",
                    "name": "newOwner",
                    "type": "address"
                }
            ],
            "name": "transferOwnership",
            "outputs": [],
            "stateMutability": "nonpayable",
            "type": "function"
        },
        {
            "inputs": [
                {
                    "internalType": "address",
                    "name": "recipient",
                    "type": "address"
                },
                {
                    "internalType": "uint256",
                    "name": "amount",
                    "type": "uint256"
                }
            ],
            "name": "transferToken",
            "outputs": [],
            "stateMutability": "nonpayable",
            "type": "function"
        }
    ],
    "bytecode": "0x6080604052683635c9adc5dea000006006553480156200001e57600080fd5b506040518060400160405280600981526020017f4d656d65546f6b656e00000000000000000000000000000000000000000000008152506040518060400160405280600381526020017f4d4d5400000000000000000000000000000000000000000000000000000000008152508160039080519060200190620000a39291906200047e565b508060049080519060200190620000bc9291906200047e565b505050620000df620000d36200015460201b60201c565b6200015c60201b60201c565b620000f3336006546200022260201b60201c565b6200014e6040518060400160405280601081526020017f62616c616e6365206f66207573657220000000000000000000000000000000008152506200013d6200039b60201b60201c565b620003a560201b62000efc1760201c565b620007a1565b600033905090565b6000600560009054906101000a900473ffffffffffffffffffffffffffffffffffffffff16905081600560006101000a81548173ffffffffffffffffffffffffffffffffffffffff021916908373ffffffffffffffffffffffffffffffffffffffff1602179055508173ffffffffffffffffffffffffffffffffffffffff168173ffffffffffffffffffffffffffffffffffffffff167f8be0079c531659141344cd1fd0a4f28419497f9722a3daafe3b4186f6b6457e060405160405180910390a35050565b600073ffffffffffffffffffffffffffffffffffffffff168273ffffffffffffffffffffffffffffffffffffffff16141562000295576040517f08c379a00000000000000000000000000000000000000000000000000000000081526004016200028c90620005db565b60405180910390fd5b620002a9600083836200044b60201b60201c565b8060026000828254620002bd919062000636565b92505081905550806000808473ffffffffffffffffffffffffffffffffffffffff1673ffffffffffffffffffffffffffffffffffffffff168152602001908152602001600020600082825462000314919062000636565b925050819055508173ffffffffffffffffffffffffffffffffffffffff16600073ffffffffffffffffffffffffffffffffffffffff167fddf252ad1be2c89b69c2b068fc378daa952ba7f163c4a11628f55a4df523b3ef836040516200037b9190620005fd565b60405180910390a362000397600083836200045060201b60201c565b5050565b6000600254905090565b620004478282604051602401620003be929190620005a7565b6040516020818303038152906040527f9710a9d0000000000000000000000000000000000000000000000000000000007bffffffffffffffffffffffffffffffffffffffffffffffffffffffff19166020820180517bffffffffffffffffffffffffffffffffffffffffffffffffffffffff83818316178352505050506200045560201b60201c565b5050565b505050565b505050565b60008151905060006a636f6e736f6c652e6c6f679050602083016000808483855afa5050505050565b8280546200048c90620006d3565b90600052602060002090601f016020900481019282620004b05760008555620004fc565b82601f10620004cb57805160ff1916838001178555620004fc565b82800160010185558215620004fc579182015b82811115620004fb578251825591602001919060010190620004de565b5b5090506200050b91906200050f565b5090565b5b808211156200052a57600081600090555060010162000510565b5090565b60006200053b826200061a565b62000547818562000625565b9350620005598185602086016200069d565b620005648162000767565b840191505092915050565b60006200057e601f8362000625565b91506200058b8262000778565b602082019050919050565b620005a18162000693565b82525050565b60006040820190508181036000830152620005c381856200052e565b9050620005d4602083018462000596565b9392505050565b60006020820190508181036000830152620005f6816200056f565b9050919050565b600060208201905062000614600083018462000596565b92915050565b600081519050919050565b600082825260208201905092915050565b6000620006438262000693565b9150620006508362000693565b9250827fffffffffffffffffffffffffffffffffffffffffffffffffffffffffffffffff0382111562000688576200068762000709565b5b828201905092915050565b6000819050919050565b60005b83811015620006bd578082015181840152602081019050620006a0565b83811115620006cd576000848401525b50505050565b60006002820490506001821680620006ec57607f821691505b6020821081141562000703576200070262000738565b5b50919050565b7f4e487b7100000000000000000000000000000000000000000000000000000000600052601160045260246000fd5b7f4e487b7100000000000000000000000000000000000000000000000000000000600052602260045260246000fd5b6000601f19601f8301169050919050565b7f45524332303a206d696e7420746f20746865207a65726f206164647265737300600082015250565b61245680620007b16000396000f3fe608060405234801561001057600080fd5b506004361061014d5760003560e01c806370a08231116100c3578063a9059cbb1161007c578063a9059cbb1461037a578063d82e3962146103aa578063dd62ed3e146103da578063e5c42fd11461040a578063ef037b9014610426578063f2fde38b146104575761014d565b806370a08231146102ca578063715018a6146102fa5780638da5cb5b1461030457806395d89b41146103225780639f30f69c14610340578063a457c2d71461034a5761014d565b806323b872dd1161011557806323b872dd146101f6578063313ce567146102265780633950935114610244578063426233601461027457806368f8fc10146102a45780636f4a2cd0146102c05761014d565b806306fdde0314610152578063095ea7b3146101705780631072cbea146101a057806318160ddd146101bc5780631bf6ddae146101da575b600080fd5b61015a610473565b6040516101679190611c79565b60405180910390f35b61018a6004803603810190610185919061199c565b610505565b6040516101979190611c35565b60405180910390f35b6101ba60048036038101906101b5919061199c565b610528565b005b6101c4610537565b6040516101d19190611e4b565b60405180910390f35b6101f460048036038101906101ef91906119d8565b610541565b005b610210600480360381019061020b919061194d565b6105d3565b60405161021d9190611c35565b60405180910390f35b61022e610602565b60405161023b9190611e66565b60405180910390f35b61025e6004803603810190610259919061199c565b61060b565b60405161026b9190611c35565b60405180910390f35b61028e600480360381019061028991906118e8565b6106b5565b60405161029b9190611e4b565b60405180910390f35b6102be60048036038101906102b9919061199c565b6106fe565b005b6102c861070c565b005b6102e460048036038101906102df91906118e8565b6108bc565b6040516102f19190611e4b565b60405180910390f35b610302610904565b005b61030c61098c565b6040516103199190611c1a565b60405180910390f35b61032a6109b6565b6040516103379190611c79565b60405180910390f35b610348610a48565b005b610364600480360381019061035f919061199c565b610ac6565b6040516103719190611c35565b60405180910390f35b610394600480360381019061038f919061199c565b610bb0565b6040516103a19190611c35565b60405180910390f35b6103c460048036038101906103bf91906118e8565b610bd3565b6040516103d19190611e4b565b60405180910390f35b6103f460048036038101906103ef9190611911565b610c28565b6040516104019190611e4b565b60405180910390f35b610424600480360381019061041f91906118e8565b610caf565b005b610440600480360381019061043b91906118e8565b610d2a565b60405161044e929190611c50565b60405180910390f35b610471600480360381019061046c91906118e8565b610e04565b005b60606003805461048290611fe0565b80601f01602080910402602001604051908101604052809291908181526020018280546104ae90611fe0565b80156104fb5780601f106104d0576101008083540402835291602001916104fb565b820191906000526020600020905b8154815290600101906020018083116104de57829003601f168201915b5050505050905090565b600080610510610f98565b905061051d818585610fa0565b600191505092915050565b6105328282610bb0565b505050565b6000600254905090565b61054b338261116b565b6105916040518060400160405280600c81526020017f746f74616c20737570706c79000000000000000000000000000000000000000081525061058c610537565b610efc565b6105d06040518060400160405280600e81526020017f7374616b6520637265617465642000000000000000000000000000000000000081525082610efc565b50565b6000806105de610f98565b90506105eb858285611342565b6105f68585856113ce565b60019150509392505050565b60006012905090565b600080610616610f98565b90506106aa818585600160008673ffffffffffffffffffffffffffffffffffffffff1673ffffffffffffffffffffffffffffffffffffffff16815260200190815260200160002060008973ffffffffffffffffffffffffffffffffffffffff1673ffffffffffffffffffffffffffffffffffffffff168152602001908152602001600020546106a59190611e9d565b610fa0565b600191505092915050565b6000600860008373ffffffffffffffffffffffffffffffffffffffff1673ffffffffffffffffffffffffffffffffffffffff168152602001908152602001600020549050919050565b610708828261164f565b5050565b610714610f98565b73ffffffffffffffffffffffffffffffffffffffff1661073261098c565b73ffffffffffffffffffffffffffffffffffffffff1614610788576040517f08c379a000000000000000000000000000000000000000000000000000000000815260040161077f90611d8b565b60405180910390fd5b60005b6007805490508110156108b9576000600782815481106107d4577f4e487b7100000000000000000000000000000000000000000000000000000000600052603260045260246000fd5b9060005260206000200160009054906101000a900473ffffffffffffffffffffffffffffffffffffffff169050600061080c82610bd3565b905061086081600960008573ffffffffffffffffffffffffffffffffffffffff1673ffffffffffffffffffffffffffffffffffffffff168152602001908152602001600020546117af90919063ffffffff16565b600960008473ffffffffffffffffffffffffffffffffffffffff1673ffffffffffffffffffffffffffffffffffffffff1681526020019081526020016000208190555050506001816108b29190611e9d565b905061078b565b50565b60008060008373ffffffffffffffffffffffffffffffffffffffff1673ffffffffffffffffffffffffffffffffffffffff168152602001908152602001600020549050919050565b61090c610f98565b73ffffffffffffffffffffffffffffffffffffffff1661092a61098c565b73ffffffffffffffffffffffffffffffffffffffff1614610980576040517f08c379a000000000000000000000000000000000000000000000000000000000815260040161097790611d8b565b60405180910390fd5b61098a60006117c5565b565b6000600560009054906101000a900473ffffffffffffffffffffffffffffffffffffffff16905090565b6060600480546109c590611fe0565b80601f01602080910402602001604051908101604052809291908181526020018280546109f190611fe0565b8015610a3e5780601f10610a1357610100808354040283529160200191610a3e565b820191906000526020600020905b815481529060010190602001808311610a2157829003601f168201915b5050505050905090565b610a50610f98565b73ffffffffffffffffffffffffffffffffffffffff16610a6e61098c565b73ffffffffffffffffffffffffffffffffffffffff1614610ac4576040517f08c379a0000000000000000000000000000000000000000000000000000000008152600401610abb90611d8b565b60405180910390fd5b565b600080610ad1610f98565b90506000600160008373ffffffffffffffffffffffffffffffffffffffff1673ffffffffffffffffffffffffffffffffffffffff16815260200190815260200160002060008673ffffffffffffffffffffffffffffffffffffffff1673ffffffffffffffffffffffffffffffffffffffff16815260200190815260200160002054905083811015610b97576040517f08c379a0000000000000000000000000000000000000000000000000000000008152600401610b8e90611e0b565b60405180910390fd5b610ba48286868403610fa0565b60019250505092915050565b600080610bbb610f98565b9050610bc88185856113ce565b600191505092915050565b60006064600860008473ffffffffffffffffffffffffffffffffffffffff1673ffffffffffffffffffffffffffffffffffffffff16815260200190815260200160002054610c219190611ef3565b9050919050565b6000600160008473ffffffffffffffffffffffffffffffffffffffff1673ffffffffffffffffffffffffffffffffffffffff16815260200190815260200160002060008373ffffffffffffffffffffffffffffffffffffffff1673ffffffffffffffffffffffffffffffffffffffff16815260200190815260200160002054905092915050565b6000610cba82610d2a565b50905080610d26576007829080600181540180825580915050600190039060005260206000200160009091909190916101000a81548173ffffffffffffffffffffffffffffffffffffffff021916908373ffffffffffffffffffffffffffffffffffffffff1602179055505b5050565b60008060005b600780549050811015610df65760078181548110610d77577f4e487b7100000000000000000000000000000000000000000000000000000000600052603260045260246000fd5b9060005260206000200160009054906101000a900473ffffffffffffffffffffffffffffffffffffffff1673ffffffffffffffffffffffffffffffffffffffff168473ffffffffffffffffffffffffffffffffffffffff161415610de2576001819250925050610dff565b600181610def9190611e9d565b9050610d30565b50600080915091505b915091565b610e0c610f98565b73ffffffffffffffffffffffffffffffffffffffff16610e2a61098c565b73ffffffffffffffffffffffffffffffffffffffff1614610e80576040517f08c379a0000000000000000000000000000000000000000000000000000000008152600401610e7790611d8b565b60405180910390fd5b600073ffffffffffffffffffffffffffffffffffffffff168173ffffffffffffffffffffffffffffffffffffffff161415610ef0576040517f08c379a0000000000000000000000000000000000000000000000000000000008152600401610ee790611d0b565b60405180910390fd5b610ef9816117c5565b50565b610f948282604051602401610f12929190611c9b565b6040516020818303038152906040527f9710a9d0000000000000000000000000000000000000000000000000000000007bffffffffffffffffffffffffffffffffffffffffffffffffffffffff19166020820180517bffffffffffffffffffffffffffffffffffffffffffffffffffffffff838183161783525050505061188b565b5050565b600033905090565b600073ffffffffffffffffffffffffffffffffffffffff168373ffffffffffffffffffffffffffffffffffffffff161415611010576040517f08c379a000000000000000000000000000000000000000000000000000000000815260040161100790611deb565b60405180910390fd5b600073ffffffffffffffffffffffffffffffffffffffff168273ffffffffffffffffffffffffffffffffffffffff161415611080576040517f08c379a000000000000000000000000000000000000000000000000000000000815260040161107790611d2b565b60405180910390fd5b80600160008573ffffffffffffffffffffffffffffffffffffffff1673ffffffffffffffffffffffffffffffffffffffff16815260200190815260200160002060008473ffffffffffffffffffffffffffffffffffffffff1673ffffffffffffffffffffffffffffffffffffffff168152602001908152602001600020819055508173ffffffffffffffffffffffffffffffffffffffff168373ffffffffffffffffffffffffffffffffffffffff167f8c5be1e5ebec7d5bd14f71427d1e84f3dd0314c0f7b2291e5b200ac8c7c3b9258360405161115e9190611e4b565b60405180910390a3505050565b600073ffffffffffffffffffffffffffffffffffffffff168273ffffffffffffffffffffffffffffffffffffffff1614156111db576040517f08c379a00000000000000000000000000000000000000000000000000000000081526004016111d290611dab565b60405180910390fd5b6111e7826000836118b4565b60008060008473ffffffffffffffffffffffffffffffffffffffff1673ffffffffffffffffffffffffffffffffffffffff1681526020019081526020016000205490508181101561126d576040517f08c379a000000000000000000000000000000000000000000000000000000000815260040161126490611ceb565b60405180910390fd5b8181036000808573ffffffffffffffffffffffffffffffffffffffff1673ffffffffffffffffffffffffffffffffffffffff1681526020019081526020016000208190555081600260008282546112c49190611f24565b92505081905550600073ffffffffffffffffffffffffffffffffffffffff168373ffffffffffffffffffffffffffffffffffffffff167fddf252ad1be2c89b69c2b068fc378daa952ba7f163c4a11628f55a4df523b3ef846040516113299190611e4b565b60405180910390a361133d836000846118b9565b505050565b600061134e8484610c28565b90507fffffffffffffffffffffffffffffffffffffffffffffffffffffffffffffffff81146113c857818110156113ba576040517f08c379a00000000000000000000000000000000000000000000000000000000081526004016113b190611d4b565b60405180910390fd5b6113c78484848403610fa0565b5b50505050565b600073ffffffffffffffffffffffffffffffffffffffff168373ffffffffffffffffffffffffffffffffffffffff16141561143e576040517f08c379a000000000000000000000000000000000000000000000000000000000815260040161143590611dcb565b60405180910390fd5b600073ffffffffffffffffffffffffffffffffffffffff168273ffffffffffffffffffffffffffffffffffffffff1614156114ae576040517f08c379a00000000000000000000000000000000000000000000000000000000081526004016114a590611ccb565b60405180910390fd5b6114b98383836118b4565b60008060008573ffffffffffffffffffffffffffffffffffffffff1673ffffffffffffffffffffffffffffffffffffffff1681526020019081526020016000205490508181101561153f576040517f08c379a000000000000000000000000000000000000000000000000000000000815260040161153690611d6b565b60405180910390fd5b8181036000808673ffffffffffffffffffffffffffffffffffffffff1673ffffffffffffffffffffffffffffffffffffffff16815260200190815260200160002081905550816000808573ffffffffffffffffffffffffffffffffffffffff1673ffffffffffffffffffffffffffffffffffffffff16815260200190815260200160002060008282546115d29190611e9d565b925050819055508273ffffffffffffffffffffffffffffffffffffffff168473ffffffffffffffffffffffffffffffffffffffff167fddf252ad1be2c89b69c2b068fc378daa952ba7f163c4a11628f55a4df523b3ef846040516116369190611e4b565b60405180910390a36116498484846118b9565b50505050565b600073ffffffffffffffffffffffffffffffffffffffff168273ffffffffffffffffffffffffffffffffffffffff1614156116bf576040517f08c379a00000000000000000000000000000000000000000000000000000000081526004016116b690611e2b565b60405180910390fd5b6116cb600083836118b4565b80600260008282546116dd9190611e9d565b92505081905550806000808473ffffffffffffffffffffffffffffffffffffffff1673ffffffffffffffffffffffffffffffffffffffff16815260200190815260200160002060008282546117329190611e9d565b925050819055508173ffffffffffffffffffffffffffffffffffffffff16600073ffffffffffffffffffffffffffffffffffffffff167fddf252ad1be2c89b69c2b068fc378daa952ba7f163c4a11628f55a4df523b3ef836040516117979190611e4b565b60405180910390a36117ab600083836118b9565b5050565b600081836117bd9190611e9d565b905092915050565b6000600560009054906101000a900473ffffffffffffffffffffffffffffffffffffffff16905081600560006101000a81548173ffffffffffffffffffffffffffffffffffffffff021916908373ffffffffffffffffffffffffffffffffffffffff1602179055508173ffffffffffffffffffffffffffffffffffffffff168173ffffffffffffffffffffffffffffffffffffffff167f8be0079c531659141344cd1fd0a4f28419497f9722a3daafe3b4186f6b6457e060405160405180910390a35050565b60008151905060006a636f6e736f6c652e6c6f679050602083016000808483855afa5050505050565b505050565b505050565b6000813590506118cd816123f2565b92915050565b6000813590506118e281612409565b92915050565b6000602082840312156118fa57600080fd5b6000611908848285016118be565b91505092915050565b6000806040838503121561192457600080fd5b6000611932858286016118be565b9250506020611943858286016118be565b9150509250929050565b60008060006060848603121561196257600080fd5b6000611970868287016118be565b9350506020611981868287016118be565b9250506040611992868287016118d3565b9150509250925092565b600080604083850312156119af57600080fd5b60006119bd858286016118be565b92505060206119ce858286016118d3565b9150509250929050565b6000602082840312156119ea57600080fd5b60006119f8848285016118d3565b91505092915050565b611a0a81611f58565b82525050565b611a1981611f6a565b82525050565b6000611a2a82611e81565b611a348185611e8c565b9350611a44818560208601611fad565b611a4d8161209f565b840191505092915050565b6000611a65602383611e8c565b9150611a70826120b0565b604082019050919050565b6000611a88602283611e8c565b9150611a93826120ff565b604082019050919050565b6000611aab602683611e8c565b9150611ab68261214e565b604082019050919050565b6000611ace602283611e8c565b9150611ad98261219d565b604082019050919050565b6000611af1601d83611e8c565b9150611afc826121ec565b602082019050919050565b6000611b14602683611e8c565b9150611b1f82612215565b604082019050919050565b6000611b37602083611e8c565b9150611b4282612264565b602082019050919050565b6000611b5a602183611e8c565b9150611b658261228d565b604082019050919050565b6000611b7d602583611e8c565b9150611b88826122dc565b604082019050919050565b6000611ba0602483611e8c565b9150611bab8261232b565b604082019050919050565b6000611bc3602583611e8c565b9150611bce8261237a565b604082019050919050565b6000611be6601f83611e8c565b9150611bf1826123c9565b602082019050919050565b611c0581611f96565b82525050565b611c1481611fa0565b82525050565b6000602082019050611c2f6000830184611a01565b92915050565b6000602082019050611c4a6000830184611a10565b92915050565b6000604082019050611c656000830185611a10565b611c726020830184611bfc565b9392505050565b60006020820190508181036000830152611c938184611a1f565b905092915050565b60006040820190508181036000830152611cb58185611a1f565b9050611cc46020830184611bfc565b9392505050565b60006020820190508181036000830152611ce481611a58565b9050919050565b60006020820190508181036000830152611d0481611a7b565b9050919050565b60006020820190508181036000830152611d2481611a9e565b9050919050565b60006020820190508181036000830152611d4481611ac1565b9050919050565b60006020820190508181036000830152611d6481611ae4565b9050919050565b60006020820190508181036000830152611d8481611b07565b9050919050565b60006020820190508181036000830152611da481611b2a565b9050919050565b60006020820190508181036000830152611dc481611b4d565b9050919050565b60006020820190508181036000830152611de481611b70565b9050919050565b60006020820190508181036000830152611e0481611b93565b9050919050565b60006020820190508181036000830152611e2481611bb6565b9050919050565b60006020820190508181036000830152611e4481611bd9565b9050919050565b6000602082019050611e606000830184611bfc565b92915050565b6000602082019050611e7b6000830184611c0b565b92915050565b600081519050919050565b600082825260208201905092915050565b6000611ea882611f96565b9150611eb383611f96565b9250827fffffffffffffffffffffffffffffffffffffffffffffffffffffffffffffffff03821115611ee857611ee7612012565b5b828201905092915050565b6000611efe82611f96565b9150611f0983611f96565b925082611f1957611f18612041565b5b828204905092915050565b6000611f2f82611f96565b9150611f3a83611f96565b925082821015611f4d57611f4c612012565b5b828203905092915050565b6000611f6382611f76565b9050919050565b60008115159050919050565b600073ffffffffffffffffffffffffffffffffffffffff82169050919050565b6000819050919050565b600060ff82169050919050565b60005b83811015611fcb578082015181840152602081019050611fb0565b83811115611fda576000848401525b50505050565b60006002820490506001821680611ff857607f821691505b6020821081141561200c5761200b612070565b5b50919050565b7f4e487b7100000000000000000000000000000000000000000000000000000000600052601160045260246000fd5b7f4e487b7100000000000000000000000000000000000000000000000000000000600052601260045260246000fd5b7f4e487b7100000000000000000000000000000000000000000000000000000000600052602260045260246000fd5b6000601f19601f8301169050919050565b7f45524332303a207472616e7366657220746f20746865207a65726f206164647260008201527f6573730000000000000000000000000000000000000000000000000000000000602082015250565b7f45524332303a206275726e20616d6f756e7420657863656564732062616c616e60008201527f6365000000000000000000000000000000000000000000000000000000000000602082015250565b7f4f776e61626c653a206e6577206f776e657220697320746865207a65726f206160008201527f6464726573730000000000000000000000000000000000000000000000000000602082015250565b7f45524332303a20617070726f766520746f20746865207a65726f20616464726560008201527f7373000000000000000000000000000000000000000000000000000000000000602082015250565b7f45524332303a20696e73756666696369656e7420616c6c6f77616e6365000000600082015250565b7f45524332303a207472616e7366657220616d6f756e742065786365656473206260008201527f616c616e63650000000000000000000000000000000000000000000000000000602082015250565b7f4f776e61626c653a2063616c6c6572206973206e6f7420746865206f776e6572600082015250565b7f45524332303a206275726e2066726f6d20746865207a65726f2061646472657360008201527f7300000000000000000000000000000000000000000000000000000000000000602082015250565b7f45524332303a207472616e736665722066726f6d20746865207a65726f20616460008201527f6472657373000000000000000000000000000000000000000000000000000000602082015250565b7f45524332303a20617070726f76652066726f6d20746865207a65726f2061646460008201527f7265737300000000000000000000000000000000000000000000000000000000602082015250565b7f45524332303a2064656372656173656420616c6c6f77616e63652062656c6f7760008201527f207a65726f000000000000000000000000000000000000000000000000000000602082015250565b7f45524332303a206d696e7420746f20746865207a65726f206164647265737300600082015250565b6123fb81611f58565b811461240657600080fd5b50565b61241281611f96565b811461241d57600080fd5b5056fea2646970667358221220548f664320d35a1f2e48ab8b86ef65989b23861faf7fa976cc5d0f4d887873b064736f6c63430008040033",
    "linkReferences": {},
    "deployedLinkReferences": {}
}